:100000000C942A000C943F000C943F000C943F0089
:100010000C943F000C943F000C943F000C943F0064
:100020000C943F000C943F000C943F000C943F0054
:100030000C943F000C943F000C943F000C943F0044
:100040000C943F000C943F000C943F000C943F0034
:100050000C943F0011241FBECFE5D8E0DEBFCDBF1A
:1000600010E0A0E6B0E0E0E7F2E002C005900D92FB
:10007000A238B107D9F70E94EF000C9436010C9416
:100080000000DF93CF9300D000D000D0CDB7DEB713
:100090009E838D831C821B8212C01A82198205C026
:1000A00089819A8101969A83898389819A8184368C
:1000B0009105B0F38B819C8101969C838B832B816E
:1000C0003C818D819E812817390738F326960FB61B
:1000D000F894DEBF0FBECDBFCF91DF910895DF93BF
:1000E000CF930F92CDB7DEB78983A5E3B0E0E5E308
:1000F000F0E080818E7F8C93EBE3F0E08981808358
:10010000A5E3B0E0E5E3F0E0808184608C9382E0D9
:1001100090E00E944100A5E3B0E0E5E3F0E08081DB
:100120008B7F8C930F90CF91DF910895DF93CF93C6
:100130000F92CDB7DEB78983A5E3B0E0E5E3F0E049
:1001400080818D7F8C93A5E3B0E0E5E3F0E08081D2
:1001500081608C93EBE3F0E089818083A5E3B0E0DC
:10016000E5E3F0E0808184608C9382E090E00E947F
:100170004100A5E3B0E0E5E3F0E080818B7F8C9364
:100180000F90CF91DF910895DF93CF93CDB7DEB776
:1001900086E990E00E94410088E30E946F0082E3BC
:1001A00090E00E94410088E30E946F0082E390E0AB
:1001B0000E94410088E30E946F0088E30E946F0064
:1001C00088E00E946F0081E00E946F0086E00E943C
:1001D0006F008CE00E946F00CF91DF910895DF9354
:1001E000CF9300D000D0CDB7DEB7EAE3F0E0808156
:1001F000EAE3F0E08FEF8083E4E3F0E08081E4E382
:10020000F0E08FEF80830E94C40080E80E946F00BE
:100210001A8219820DC089819A81FC01E05AFF4F30
:1002200080810E94960089819A8101969A838983B0
:1002300089819A818031910570F380EC0E946F0072
:100240001A8219820DC089819A81FC01EF58FF4FF3
:1002500080810E94960089819A8101969A83898380
:1002600089819A818031910570F3FFCFF894FFCF97
:1002700077656C636F6D6520746F20636869705F6C
:1002800000706172746E65722073746F72652020E5
:0202900020004C
:00000001FF
