:1000C200110877656C636F6D6520746F20636869D2
:1000D200705F001119706172746E65722073746FB3
:0600E200726520202000E1
:0600E900D2A27F027E009E
:1000EF00E4FDFCC3ED9FEC9E5015E4FBFA0BBB0047
:0F00FF00010AEB646E4A70F50DBD00010C80E440
:01010E0022CE
:090133007F327E001200EF7F38DC
:0F013C00C2A2C2A0C2A18F80001200E9C2A222FB
:06014B00AF822FF8E6FF71
:0F015100C2A2D2A0C2A18F80001200E9C2A222D6
:10010F007F961201351201331201337F3812013CF1
:10011F007F0812013C7F0112013C7F0612013C7FD8
:04012F000C02013C81
:10008F0012010F7F8012013C900000740812014B87
:10009F00A3E5826410458370F27FC012013CE4F542
:1000AF0083F582741912014BA3E5826410458370A6
:0300BF00F280FECE
:03000000020003F8
:0C000300787FE4F6D8FD75812902004AE0
:10000F0002008FE493A3F8E493A34003F68001F278
:10001F0008DFF48029E493A3F85407240CC8C333F2
:10002F00C4540F4420C8834004F456800146F6DFC1
:10003F00E4800B01020408102040809000C2E47E8F
:10004F00019360BCA3FF543F30E509541FFEE493B6
:10005F00A360010ECF54C025E060A840B8E493A37D
:10006F00FAE493A3F8E493A3C8C582C8CAC583CAA8
:10007F00F0A3C8C582C8CAC583CADFE9DEE780BE60
:0100E8000017
:00000001FF
